:100000000C9434000C9451000C9451000C94510049
:100010000C9451000C9451000C9451000C9451001C
:100020000C9451000C9451000C9451000C9451000C
:100030000C9451000C9451000C9451000C945100FC
:100040000C9451000C9451000C9451000C945100EC
:100050000C9451000C9451000C9451000C945100DC
:100060000C9451000C94510011241FBECFEFD8E026
:10007000DEBFCDBF11E0A0E0B1E0EAE2F5E002C0F2
:1000800005900D92A435B107D9F721E0A4E5B1E0C0
:1000900001C01D92A435B207E1F70E94D6000C946E
:1000A00093020C940000CF93C62F5A9A5B9A5C9AE5
:1000B0005D9A5E9A5F9A0E94B401C33081F028F481
:1000C000C13049F0C23049F011C0C53061F048F08C
:1000D000C63059F00BC05A9809C05B9807C05C98AD
:1000E00005C05D9803C05E9801C05F98CF910895E8
:1000F0002F923F92FF920F931F93CF93DF93B10103
:10010000665F7F4FD101AA5BBF4F08E0FF24F394E5
:1001100040C0AC01EC01CE5ADF4F388122972881D4
:10012000230F29973881230F64963881230F219755
:100130003881230F64973881230F66963881230F07
:1001400064973881230F223010F4108218C02430B5
:1001500010F0108214C0233041F4EC01CF5ADF4F6D
:100160002881211105C0F0820AC02250223038F4C3
:10017000EA01CF5ADF4F2881213009F4F082115073
:10018000019631961111C5CF665F7F4F6A177B07C5
:1001900029F0FB013196CB01102FBBCFDF91CF911E
:1001A0001F910F91FF903F902F900895CF93DF9371
:1001B000CDB7DEB7C55AD1090FB6F894DEBF0FBE72
:1001C000CDBF84B18C6184B98AB18C6F8AB980E566
:1001D000E4E0F1E0DE01AF5ABF4F01900D928A9545
:1001E000E1F7CE01845A9F4FCF55DF4F9983888323
:1001F000C15AD0406894DD24D3F86894772477F806
:10020000C12C5E0198E9A90EB11CCF55DF4FA88122
:10021000C15AD040CC55DF4FA883C45AD040CE55E8
:10022000DF4FB881C25AD040CB55DF4FB883C55A93
:10023000D0406D2C0F2EF2E3EF2EF12CF02D882400
:10024000839421C03191399F800D112496952150BE
:10025000C9F7692D0E9453000E94B101EFE9FFE048
:100260003197F1F700C000009394065F1F4FF7E04D
:100270009F1629F0F8012D2D972D8C2DE3CF81E0CD
:10028000E81AF10829F08E01045A1F4F982CF2CF7A
:10029000DE0111961D01BD01CE018F5A9F4F0E94B4
:1002A0007800FE01E45AFF4F1F01CD55DF4F188241
:1002B000C35AD04042C0F401D401A055B1098C9179
:1002C000908198133FC0CD55DF4FB881C35AD040BD
:1002D000BF5FCD55DF4FB883C35AD04033C00E94B3
:1002E000200281709078992324F401978E6F9F6F7C
:1002F0000196F80181938F015A945110F0CFFAE0E2
:10030000EF0EF11CAE14BF0459F40DC0CC55DF4FF5
:10031000E880C45AD040CB55DF4FF880C55AD04052
:100320008701562CDCCF4A944110C5CF8AE0280EB5
:10033000311C2A143B0409F47DCF41016894442404
:1003400043F8B9CF80839FEF891A990ACD55DF4FC3
:10035000A881C35AD040A03331F7D8CF2A9A2A981F
:1003600008952B9A2B9808950F931F93CF93DF93A3
:100370002B98C0E0D0E0082F10E098010C2E02C0AE
:10038000359527950A94E2F720FF02C02C9A01C008
:100390002C980E94AE012196C830D10571F7DF91EB
:1003A000CF911F910F9108958F929F92AF92BF921C
:1003B000CF92DF92EF92FF92CF93DF93EC016881AF
:1003C00079818A819B81611571058105910521F4EF
:1003D00064E279ED8BE597E02DE133EF41E050E009
:1003E0000E94300249015A019B01AC01A7EAB1E425
:1003F0000E944F026B017C01ACEEB4EFA5019401A9
:100400000E945D02DC01CB018C0D9D1DAE1DBF1D48
:10041000B7FF03C00197A109B04888839983AA83D5
:10042000BB839F77DF91CF91FF90EF90DF90CF90CC
:10043000BF90AF909F908F9008950E94D40108952F
:1004400080E091E00E94D4010895A0E0B0E08093A4
:10045000000190930101A0930201B093030108955C
:10046000052E97FB1EF400940E94470257FD07D00B
:100470000E94620207FC03D04EF40C944702509590
:100480004095309521953F4F4F4F5F4F0895909580
:100490008095709561957F4F8F4F9F4F08950E9473
:1004A0008402A59F900DB49F900DA49F800D911D77
:1004B00011240895B7FF0C944F020E944F02821B33
:1004C000930B0895A1E21A2EAA1BBB1BFD010DC0C0
:1004D000AA1FBB1FEE1FFF1FA217B307E407F507F4
:1004E00020F0A21BB30BE40BF50B661F771F881FD0
:1004F000991F1A9469F760957095809590959B0166
:10050000AC01BD01CF010895A29FB001B39FC0010E
:10051000A39F700D811D1124911DB29F700D811D2F
:0A0520001124911D0895F894FFCFF7
:10052A0001000000000000000000000000000000C0
:10053A0000010000000101000000010100010100AA
:10054A00000000010001000001000100000000019C
:10055A00000000010100000001010001000101008A
:10056A00000001000101000100000000000000007D
:04057A00000000007D
:00000001FF
